{
  "_format": "hh-sol-artifact-1",
  "contractName": "Voting",
  "sourceName": "contracts/Voting.sol",
  "abi": [
    {
      "inputs": [
        {
          "internalType": "string",
          "name": "_question",
          "type": "string"
        }
      ],
      "stateMutability": "nonpayable",
      "type": "constructor"
    },
    {
      "anonymous": false,
      "inputs": [
        {
          "indexed": true,
          "internalType": "address",
          "name": "previousOwner",
          "type": "address"
        },
        {
          "indexed": true,
          "internalType": "address",
          "name": "newOwner",
          "type": "address"
        }
      ],
      "name": "OwnershipTransferred",
      "type": "event"
    },
    {
      "anonymous": false,
      "inputs": [
        {
          "indexed": false,
          "internalType": "address",
          "name": "account",
          "type": "address"
        }
      ],
      "name": "Paused",
      "type": "event"
    },
    {
      "anonymous": false,
      "inputs": [
        {
          "indexed": true,
          "internalType": "address",
          "name": "_address",
          "type": "address"
        }
      ],
      "name": "Register",
      "type": "event"
    },
    {
      "anonymous": false,
      "inputs": [
        {
          "indexed": false,
          "internalType": "address",
          "name": "account",
          "type": "address"
        }
      ],
      "name": "Unpaused",
      "type": "event"
    },
    {
      "anonymous": false,
      "inputs": [
        {
          "indexed": true,
          "internalType": "address",
          "name": "_address",
          "type": "address"
        },
        {
          "indexed": false,
          "internalType": "bool",
          "name": "response",
          "type": "bool"
        }
      ],
      "name": "Vote",
      "type": "event"
    },
    {
      "inputs": [
        {
          "internalType": "string",
          "name": "_name",
          "type": "string"
        }
      ],
      "name": "addVoter",
      "outputs": [],
      "stateMutability": "nonpayable",
      "type": "function"
    },
    {
      "inputs": [],
      "name": "endVote",
      "outputs": [],
      "stateMutability": "nonpayable",
      "type": "function"
    },
    {
      "inputs": [],
      "name": "getRegisteredVoters",
      "outputs": [
        {
          "internalType": "address[]",
          "name": "",
          "type": "address[]"
        }
      ],
      "stateMutability": "view",
      "type": "function"
    },
    {
      "inputs": [],
      "name": "getUsers",
      "outputs": [
        {
          "internalType": "address[]",
          "name": "",
          "type": "address[]"
        },
        {
          "internalType": "address[]",
          "name": "",
          "type": "address[]"
        }
      ],
      "stateMutability": "view",
      "type": "function"
    },
    {
      "inputs": [],
      "name": "getVotedUsers",
      "outputs": [
        {
          "internalType": "address[]",
          "name": "",
          "type": "address[]"
        }
      ],
      "stateMutability": "view",
      "type": "function"
    },
    {
      "inputs": [],
      "name": "getVotes",
      "outputs": [
        {
          "internalType": "uint256",
          "name": "",
          "type": "uint256"
        },
        {
          "internalType": "uint256",
          "name": "",
          "type": "uint256"
        }
      ],
      "stateMutability": "view",
      "type": "function"
    },
    {
      "inputs": [],
      "name": "owner",
      "outputs": [
        {
          "internalType": "address",
          "name": "",
          "type": "address"
        }
      ],
      "stateMutability": "view",
      "type": "function"
    },
    {
      "inputs": [],
      "name": "paused",
      "outputs": [
        {
          "internalType": "bool",
          "name": "",
          "type": "bool"
        }
      ],
      "stateMutability": "view",
      "type": "function"
    },
    {
      "inputs": [],
      "name": "question",
      "outputs": [
        {
          "internalType": "string",
          "name": "",
          "type": "string"
        }
      ],
      "stateMutability": "view",
      "type": "function"
    },
    {
      "inputs": [
        {
          "internalType": "uint256",
          "name": "",
          "type": "uint256"
        }
      ],
      "name": "registeredVoters",
      "outputs": [
        {
          "internalType": "address",
          "name": "",
          "type": "address"
        }
      ],
      "stateMutability": "view",
      "type": "function"
    },
    {
      "inputs": [],
      "name": "renounceOwnership",
      "outputs": [],
      "stateMutability": "nonpayable",
      "type": "function"
    },
    {
      "inputs": [],
      "name": "resetVotes",
      "outputs": [],
      "stateMutability": "nonpayable",
      "type": "function"
    },
    {
      "inputs": [],
      "name": "startVote",
      "outputs": [],
      "stateMutability": "nonpayable",
      "type": "function"
    },
    {
      "inputs": [
        {
          "internalType": "address",
          "name": "newOwner",
          "type": "address"
        }
      ],
      "name": "transferOwnership",
      "outputs": [],
      "stateMutability": "nonpayable",
      "type": "function"
    },
    {
      "inputs": [
        {
          "internalType": "bool",
          "name": "_response",
          "type": "bool"
        }
      ],
      "name": "vote",
      "outputs": [],
      "stateMutability": "nonpayable",
      "type": "function"
    },
    {
      "inputs": [
        {
          "internalType": "uint256",
          "name": "",
          "type": "uint256"
        }
      ],
      "name": "voteCasters",
      "outputs": [
        {
          "internalType": "address",
          "name": "",
          "type": "address"
        }
      ],
      "stateMutability": "view",
      "type": "function"
    }
  ],
  "bytecode": "0x60806040523480156200001157600080fd5b50604051620026523803806200265283398181016040528101906200003791906200035d565b620000576200004b620000a160201b60201c565b620000a960201b60201c565b60008060146101000a81548160ff021916908315150217905550620000816200016d60201b60201c565b8060039080519060200190620000999291906200023b565b5050620005f7565b600033905090565b60008060009054906101000a900473ffffffffffffffffffffffffffffffffffffffff169050816000806101000a81548173ffffffffffffffffffffffffffffffffffffffff021916908373ffffffffffffffffffffffffffffffffffffffff1602179055508173ffffffffffffffffffffffffffffffffffffffff168173ffffffffffffffffffffffffffffffffffffffff167f8be0079c531659141344cd1fd0a4f28419497f9722a3daafe3b4186f6b6457e060405160405180910390a35050565b6200017d6200022560201b60201c565b15620001c0576040517f08c379a0000000000000000000000000000000000000000000000000000000008152600401620001b790620003f7565b60405180910390fd5b6001600060146101000a81548160ff0219169083151502179055507f62e78cea01bee320cd4e420270b5ea74000d11b0c9f74754ebdbfc544b05a2586200020c620000a160201b60201c565b6040516200021b9190620003da565b60405180910390a1565b60008060149054906101000a900460ff16905090565b8280546200024990620004f3565b90600052602060002090601f0160209004810192826200026d5760008555620002b9565b82601f106200028857805160ff1916838001178555620002b9565b82800160010185558215620002b9579182015b82811115620002b85782518255916020019190600101906200029b565b5b509050620002c89190620002cc565b5090565b5b80821115620002e7576000816000905550600101620002cd565b5090565b600062000302620002fc8462000442565b62000419565b9050828152602081018484840111156200031b57600080fd5b62000328848285620004bd565b509392505050565b600082601f8301126200034257600080fd5b815162000354848260208601620002eb565b91505092915050565b6000602082840312156200037057600080fd5b600082015167ffffffffffffffff8111156200038b57600080fd5b620003998482850162000330565b91505092915050565b620003ad8162000489565b82525050565b6000620003c260108362000478565b9150620003cf82620005ce565b602082019050919050565b6000602082019050620003f16000830184620003a2565b92915050565b600060208201905081810360008301526200041281620003b3565b9050919050565b60006200042562000438565b905062000433828262000529565b919050565b6000604051905090565b600067ffffffffffffffff82111562000460576200045f6200058e565b5b6200046b82620005bd565b9050602081019050919050565b600082825260208201905092915050565b600062000496826200049d565b9050919050565b600073ffffffffffffffffffffffffffffffffffffffff82169050919050565b60005b83811015620004dd578082015181840152602081019050620004c0565b83811115620004ed576000848401525b50505050565b600060028204905060018216806200050c57607f821691505b602082108114156200052357620005226200055f565b5b50919050565b6200053482620005bd565b810181811067ffffffffffffffff821117156200055657620005556200058e565b5b80604052505050565b7f4e487b7100000000000000000000000000000000000000000000000000000000600052602260045260246000fd5b7f4e487b7100000000000000000000000000000000000000000000000000000000600052604160045260246000fd5b6000601f19601f8301169050919050565b7f5061757361626c653a2070617573656400000000000000000000000000000000600082015250565b61204b80620006076000396000f3fe608060405234801561001057600080fd5b50600436106100ff5760003560e01c80636814d7b711610097578063b922394611610066578063b922394614610266578063b9830ff114610270578063ba9cb1931461027a578063f2fde38b14610298576100ff565b80636814d7b7146101f2578063715018a6146102225780638da5cb5b1461022c578063aca848921461024a576100ff565b80633fad9ae0116100d35780633fad9ae0146101905780634b9f5c98146101ae5780634c0a6af0146101ca5780635c975abb146101d4576100ff565b8062ce8e3e146101045780630dc96015146101235780632436e06b146101425780632bc4a6e714610172575b600080fd5b61010c6102b4565b60405161011a929190611a1d565b60405180910390f35b61012b6103d3565b604051610139929190611b71565b60405180910390f35b61015c600480360381019061015791906117d7565b610556565b60405161016991906119e0565b60405180910390f35b61017a610595565b60405161018791906119fb565b60405180910390f35b610198610623565b6040516101a59190611a6f565b60405180910390f35b6101c860048036038101906101c3919061176d565b6106b1565b005b6101d26109bc565b005b6101dc610a42565b6040516101e99190611a54565b60405180910390f35b61020c600480360381019061020791906117d7565b610a58565b60405161021991906119e0565b60405180910390f35b61022a610a97565b005b610234610b1f565b60405161024191906119e0565b60405180910390f35b610264600480360381019061025f9190611796565b610b48565b005b61026e610e37565b005b610278610ebd565b005b610282611243565b60405161028f91906119fb565b60405180910390f35b6102b260048036038101906102ad9190611744565b6112d1565b005b606080600160028180548060200260200160405190810160405280929190818152602001828054801561033c57602002820191906000526020600020905b8160009054906101000a900473ffffffffffffffffffffffffffffffffffffffff1673ffffffffffffffffffffffffffffffffffffffff16815260200190600101908083116102f2575b50505050509150808054806020026020016040519081016040528092919081815260200182805480156103c457602002820191906000526020600020905b8160009054906101000a900473ffffffffffffffffffffffffffffffffffffffff1673ffffffffffffffffffffffffffffffffffffffff168152602001906001019080831161037a575b50505050509050915091509091565b60008060008060005b60028054905081101561054957600180811115610422577f4e487b7100000000000000000000000000000000000000000000000000000000600052602160045260246000fd5b6004600060028481548110610460577f4e487b7100000000000000000000000000000000000000000000000000000000600052603260045260246000fd5b9060005260206000200160009054906101000a900473ffffffffffffffffffffffffffffffffffffffff1673ffffffffffffffffffffffffffffffffffffffff1673ffffffffffffffffffffffffffffffffffffffff16815260200190815260200160002060010160009054906101000a900460ff16600181111561050e577f4e487b7100000000000000000000000000000000000000000000000000000000600052602160045260246000fd5b141561052757828061051f90611d32565b935050610536565b818061053290611d32565b9250505b808061054190611d32565b9150506103dc565b5080829350935050509091565b6001818154811061056657600080fd5b906000526020600020016000915054906101000a900473ffffffffffffffffffffffffffffffffffffffff1681565b6060600180548060200260200160405190810160405280929190818152602001828054801561061957602002820191906000526020600020905b8160009054906101000a900473ffffffffffffffffffffffffffffffffffffffff1673ffffffffffffffffffffffffffffffffffffffff16815260200190600101908083116105cf575b5050505050905090565b6003805461063090611ccf565b80601f016020809104026020016040519081016040528092919081815260200182805461065c90611ccf565b80156106a95780601f1061067e576101008083540402835291602001916106a9565b820191906000526020600020905b81548152906001019060200180831161068c57829003601f168201915b505050505081565b6106b9610a42565b156106f9576040517f08c379a00000000000000000000000000000000000000000000000000000000081526004016106f090611b11565b60405180910390fd5b60011515600460006107096113c9565b73ffffffffffffffffffffffffffffffffffffffff1673ffffffffffffffffffffffffffffffffffffffff16815260200190815260200160002060010160029054906101000a900460ff16151514610796576040517f08c379a000000000000000000000000000000000000000000000000000000000815260040161078d90611b31565b60405180910390fd5b60001515600460006107a66113c9565b73ffffffffffffffffffffffffffffffffffffffff1673ffffffffffffffffffffffffffffffffffffffff16815260200190815260200160002060010160019054906101000a900460ff16151514610833576040517f08c379a000000000000000000000000000000000000000000000000000000000815260040161082a90611ad1565b60405180910390fd5b600061083d6113c9565b90506000600460008373ffffffffffffffffffffffffffffffffffffffff1673ffffffffffffffffffffffffffffffffffffffff16815260200190815260200160002090506001151583151514610895576000610898565b60015b8160010160006101000a81548160ff021916908360018111156108e4577f4e487b7100000000000000000000000000000000000000000000000000000000600052602160045260246000fd5b021790555060018160010160016101000a81548160ff0219169083151502179055506002829080600181540180825580915050600190039060005260206000200160009091909190916101000a81548173ffffffffffffffffffffffffffffffffffffffff021916908373ffffffffffffffffffffffffffffffffffffffff1602179055508173ffffffffffffffffffffffffffffffffffffffff167fa635d31e67484fd1d93ba01ab0ef882e4440a78aa40d0e2771e8a2aace459869846040516109af9190611a54565b60405180910390a2505050565b6109c46113c9565b73ffffffffffffffffffffffffffffffffffffffff166109e2610b1f565b73ffffffffffffffffffffffffffffffffffffffff1614610a38576040517f08c379a0000000000000000000000000000000000000000000000000000000008152600401610a2f90611b51565b60405180910390fd5b610a406113d1565b565b60008060149054906101000a900460ff16905090565b60028181548110610a6857600080fd5b906000526020600020016000915054906101000a900473ffffffffffffffffffffffffffffffffffffffff1681565b610a9f6113c9565b73ffffffffffffffffffffffffffffffffffffffff16610abd610b1f565b73ffffffffffffffffffffffffffffffffffffffff1614610b13576040517f08c379a0000000000000000000000000000000000000000000000000000000008152600401610b0a90611b51565b60405180910390fd5b610b1d6000611472565b565b60008060009054906101000a900473ffffffffffffffffffffffffffffffffffffffff16905090565b610b50610a42565b610b8f576040517f08c379a0000000000000000000000000000000000000000000000000000000008152600401610b8690611a91565b60405180910390fd5b6000151560046000610b9f6113c9565b73ffffffffffffffffffffffffffffffffffffffff1673ffffffffffffffffffffffffffffffffffffffff16815260200190815260200160002060010160029054906101000a900460ff16151514610c2c576040517f08c379a0000000000000000000000000000000000000000000000000000000008152600401610c2390611af1565b60405180910390fd5b6000610c366113c9565b9050604051806080016040528083815260200160006001811115610c83577f4e487b7100000000000000000000000000000000000000000000000000000000600052602160045260246000fd5b815260200160001515815260200160011515815250600460008373ffffffffffffffffffffffffffffffffffffffff1673ffffffffffffffffffffffffffffffffffffffff1681526020019081526020016000206000820151816000019080519060200190610cf39291906115d9565b5060208201518160010160006101000a81548160ff02191690836001811115610d45577f4e487b7100000000000000000000000000000000000000000000000000000000600052602160045260246000fd5b021790555060408201518160010160016101000a81548160ff02191690831515021790555060608201518160010160026101000a81548160ff0219169083151502179055509050506001819080600181540180825580915050600190039060005260206000200160009091909190916101000a81548173ffffffffffffffffffffffffffffffffffffffff021916908373ffffffffffffffffffffffffffffffffffffffff1602179055508073ffffffffffffffffffffffffffffffffffffffff167feeda149c76076b34d4b9d8896c2f7efc0d33d1c7b53ea3c5db490d64613f603a60405160405180910390a25050565b610e3f6113c9565b73ffffffffffffffffffffffffffffffffffffffff16610e5d610b1f565b73ffffffffffffffffffffffffffffffffffffffff1614610eb3576040517f08c379a0000000000000000000000000000000000000000000000000000000008152600401610eaa90611b51565b60405180910390fd5b610ebb611536565b565b610ec5610a42565b610f04576040517f08c379a0000000000000000000000000000000000000000000000000000000008152600401610efb90611a91565b60405180910390fd5b610f0c6113c9565b73ffffffffffffffffffffffffffffffffffffffff16610f2a610b1f565b73ffffffffffffffffffffffffffffffffffffffff1614610f80576040517f08c379a0000000000000000000000000000000000000000000000000000000008152600401610f7790611b51565b60405180910390fd5b60005b60028054905081101561123257600060028281548110610fcc577f4e487b7100000000000000000000000000000000000000000000000000000000600052603260045260246000fd5b9060005260206000200160009054906101000a900473ffffffffffffffffffffffffffffffffffffffff1690506000600460008373ffffffffffffffffffffffffffffffffffffffff1673ffffffffffffffffffffffffffffffffffffffff168152602001908152602001600020600001805461104890611ccf565b80601f016020809104026020016040519081016040528092919081815260200182805461107490611ccf565b80156110c15780601f10611096576101008083540402835291602001916110c1565b820191906000526020600020905b8154815290600101906020018083116110a457829003601f168201915b50505050509050604051806080016040528082815260200160006001811115611113577f4e487b7100000000000000000000000000000000000000000000000000000000600052602160045260246000fd5b815260200160011515815260200160001515815250600460008473ffffffffffffffffffffffffffffffffffffffff1673ffffffffffffffffffffffffffffffffffffffff16815260200190815260200160002060008201518160000190805190602001906111839291906115d9565b5060208201518160010160006101000a81548160ff021916908360018111156111d5577f4e487b7100000000000000000000000000000000000000000000000000000000600052602160045260246000fd5b021790555060408201518160010160016101000a81548160ff02191690831515021790555060608201518160010160026101000a81548160ff0219169083151502179055509050505050808061122a90611d32565b915050610f83565b5060026000611241919061165f565b565b606060028054806020026020016040519081016040528092919081815260200182805480156112c757602002820191906000526020600020905b8160009054906101000a900473ffffffffffffffffffffffffffffffffffffffff1673ffffffffffffffffffffffffffffffffffffffff168152602001906001019080831161127d575b5050505050905090565b6112d96113c9565b73ffffffffffffffffffffffffffffffffffffffff166112f7610b1f565b73ffffffffffffffffffffffffffffffffffffffff161461134d576040517f08c379a000000000000000000000000000000000000000000000000000000000815260040161134490611b51565b60405180910390fd5b600073ffffffffffffffffffffffffffffffffffffffff168173ffffffffffffffffffffffffffffffffffffffff1614156113bd576040517f08c379a00000000000000000000000000000000000000000000000000000000081526004016113b490611ab1565b60405180910390fd5b6113c681611472565b50565b600033905090565b6113d9610a42565b611418576040517f08c379a000000000000000000000000000000000000000000000000000000000815260040161140f90611a91565b60405180910390fd5b60008060146101000a81548160ff0219169083151502179055507f5db9ee0a495bf2e6ff9c91a7834c1ba4fdd244a5e8aa4e537bd38aeae4b073aa61145b6113c9565b60405161146891906119e0565b60405180910390a1565b60008060009054906101000a900473ffffffffffffffffffffffffffffffffffffffff169050816000806101000a81548173ffffffffffffffffffffffffffffffffffffffff021916908373ffffffffffffffffffffffffffffffffffffffff1602179055508173ffffffffffffffffffffffffffffffffffffffff168173ffffffffffffffffffffffffffffffffffffffff167f8be0079c531659141344cd1fd0a4f28419497f9722a3daafe3b4186f6b6457e060405160405180910390a35050565b61153e610a42565b1561157e576040517f08c379a000000000000000000000000000000000000000000000000000000000815260040161157590611b11565b60405180910390fd5b6001600060146101000a81548160ff0219169083151502179055507f62e78cea01bee320cd4e420270b5ea74000d11b0c9f74754ebdbfc544b05a2586115c26113c9565b6040516115cf91906119e0565b60405180910390a1565b8280546115e590611ccf565b90600052602060002090601f016020900481019282611607576000855561164e565b82601f1061162057805160ff191683800117855561164e565b8280016001018555821561164e579182015b8281111561164d578251825591602001919060010190611632565b5b50905061165b9190611680565b5090565b508054600082559060005260206000209081019061167d9190611680565b50565b5b80821115611699576000816000905550600101611681565b5090565b60006116b06116ab84611bbf565b611b9a565b9050828152602081018484840111156116c857600080fd5b6116d3848285611c8d565b509392505050565b6000813590506116ea81611fd0565b92915050565b6000813590506116ff81611fe7565b92915050565b600082601f83011261171657600080fd5b813561172684826020860161169d565b91505092915050565b60008135905061173e81611ffe565b92915050565b60006020828403121561175657600080fd5b6000611764848285016116db565b91505092915050565b60006020828403121561177f57600080fd5b600061178d848285016116f0565b91505092915050565b6000602082840312156117a857600080fd5b600082013567ffffffffffffffff8111156117c257600080fd5b6117ce84828501611705565b91505092915050565b6000602082840312156117e957600080fd5b60006117f78482850161172f565b91505092915050565b600061180c8383611818565b60208301905092915050565b61182181611c45565b82525050565b61183081611c45565b82525050565b600061184182611c00565b61184b8185611c23565b935061185683611bf0565b8060005b8381101561188757815161186e8882611800565b975061187983611c16565b92505060018101905061185a565b5085935050505092915050565b61189d81611c57565b82525050565b60006118ae82611c0b565b6118b88185611c34565b93506118c8818560208601611c9c565b6118d181611e08565b840191505092915050565b60006118e9601483611c34565b91506118f482611e19565b602082019050919050565b600061190c602683611c34565b915061191782611e42565b604082019050919050565b600061192f602283611c34565b915061193a82611e91565b604082019050919050565b6000611952602a83611c34565b915061195d82611ee0565b604082019050919050565b6000611975601083611c34565b915061198082611f2f565b602082019050919050565b6000611998602683611c34565b91506119a382611f58565b604082019050919050565b60006119bb602083611c34565b91506119c682611fa7565b602082019050919050565b6119da81611c83565b82525050565b60006020820190506119f56000830184611827565b92915050565b60006020820190508181036000830152611a158184611836565b905092915050565b60006040820190508181036000830152611a378185611836565b90508181036020830152611a4b8184611836565b90509392505050565b6000602082019050611a696000830184611894565b92915050565b60006020820190508181036000830152611a8981846118a3565b905092915050565b60006020820190508181036000830152611aaa816118dc565b9050919050565b60006020820190508181036000830152611aca816118ff565b9050919050565b60006020820190508181036000830152611aea81611922565b9050919050565b60006020820190508181036000830152611b0a81611945565b9050919050565b60006020820190508181036000830152611b2a81611968565b9050919050565b60006020820190508181036000830152611b4a8161198b565b9050919050565b60006020820190508181036000830152611b6a816119ae565b9050919050565b6000604082019050611b8660008301856119d1565b611b9360208301846119d1565b9392505050565b6000611ba4611bb5565b9050611bb08282611d01565b919050565b6000604051905090565b600067ffffffffffffffff821115611bda57611bd9611dd9565b5b611be382611e08565b9050602081019050919050565b6000819050602082019050919050565b600081519050919050565b600081519050919050565b6000602082019050919050565b600082825260208201905092915050565b600082825260208201905092915050565b6000611c5082611c63565b9050919050565b60008115159050919050565b600073ffffffffffffffffffffffffffffffffffffffff82169050919050565b6000819050919050565b82818337600083830152505050565b60005b83811015611cba578082015181840152602081019050611c9f565b83811115611cc9576000848401525b50505050565b60006002820490506001821680611ce757607f821691505b60208210811415611cfb57611cfa611daa565b5b50919050565b611d0a82611e08565b810181811067ffffffffffffffff82111715611d2957611d28611dd9565b5b80604052505050565b6000611d3d82611c83565b91507fffffffffffffffffffffffffffffffffffffffffffffffffffffffffffffffff821415611d7057611d6f611d7b565b5b600182019050919050565b7f4e487b7100000000000000000000000000000000000000000000000000000000600052601160045260246000fd5b7f4e487b7100000000000000000000000000000000000000000000000000000000600052602260045260246000fd5b7f4e487b7100000000000000000000000000000000000000000000000000000000600052604160045260246000fd5b6000601f19601f8301169050919050565b7f5061757361626c653a206e6f7420706175736564000000000000000000000000600082015250565b7f4f776e61626c653a206e6577206f776e657220697320746865207a65726f206160008201527f6464726573730000000000000000000000000000000000000000000000000000602082015250565b7f566f74696e673a20596f7520686176652063617374656420796f757220766f7460008201527f652e000000000000000000000000000000000000000000000000000000000000602082015250565b7f566f74696e673a20596f752061726520616c726561647920726567697374657260008201527f656420746f20766f746500000000000000000000000000000000000000000000602082015250565b7f5061757361626c653a2070617573656400000000000000000000000000000000600082015250565b7f566f74696e673a20596f7520617265206e6f742072656769737465726564207460008201527f6f20766f74650000000000000000000000000000000000000000000000000000602082015250565b7f4f776e61626c653a2063616c6c6572206973206e6f7420746865206f776e6572600082015250565b611fd981611c45565b8114611fe457600080fd5b50565b611ff081611c57565b8114611ffb57600080fd5b50565b61200781611c83565b811461201257600080fd5b5056fea264697066735822122067eb46e1d72b2d0d5fa14f4b8b940cb5b7a214a81676ea7fb3dcb8905d6bec6a64736f6c63430008040033",
  "linkReferences": {},
  "deployedLinkReferences": {}
}