{
  "_format": "hh-sol-artifact-1",
  "contractName": "Voting",
  "sourceName": "contracts/Voting.sol",
  "abi": [
    {
      "inputs": [],
      "stateMutability": "nonpayable",
      "type": "constructor"
    },
    {
      "anonymous": false,
      "inputs": [
        {
          "indexed": true,
          "internalType": "address",
          "name": "previousOwner",
          "type": "address"
        },
        {
          "indexed": true,
          "internalType": "address",
          "name": "newOwner",
          "type": "address"
        }
      ],
      "name": "OwnershipTransferred",
      "type": "event"
    },
    {
      "anonymous": false,
      "inputs": [
        {
          "indexed": false,
          "internalType": "address",
          "name": "account",
          "type": "address"
        }
      ],
      "name": "Paused",
      "type": "event"
    },
    {
      "anonymous": false,
      "inputs": [
        {
          "indexed": false,
          "internalType": "address",
          "name": "account",
          "type": "address"
        }
      ],
      "name": "Unpaused",
      "type": "event"
    },
    {
      "inputs": [
        {
          "internalType": "string",
          "name": "name",
          "type": "string"
        }
      ],
      "name": "addVoter",
      "outputs": [],
      "stateMutability": "nonpayable",
      "type": "function"
    },
    {
      "inputs": [],
      "name": "endVote",
      "outputs": [],
      "stateMutability": "nonpayable",
      "type": "function"
    },
    {
      "inputs": [],
      "name": "getUsers",
      "outputs": [
        {
          "internalType": "address[]",
          "name": "",
          "type": "address[]"
        },
        {
          "internalType": "address[]",
          "name": "",
          "type": "address[]"
        }
      ],
      "stateMutability": "view",
      "type": "function"
    },
    {
      "inputs": [],
      "name": "getVotes",
      "outputs": [
        {
          "internalType": "uint256",
          "name": "",
          "type": "uint256"
        },
        {
          "internalType": "uint256",
          "name": "",
          "type": "uint256"
        }
      ],
      "stateMutability": "view",
      "type": "function"
    },
    {
      "inputs": [],
      "name": "owner",
      "outputs": [
        {
          "internalType": "address",
          "name": "",
          "type": "address"
        }
      ],
      "stateMutability": "view",
      "type": "function"
    },
    {
      "inputs": [],
      "name": "paused",
      "outputs": [
        {
          "internalType": "bool",
          "name": "",
          "type": "bool"
        }
      ],
      "stateMutability": "view",
      "type": "function"
    },
    {
      "inputs": [
        {
          "internalType": "uint256",
          "name": "",
          "type": "uint256"
        }
      ],
      "name": "registeredVoters",
      "outputs": [
        {
          "internalType": "address",
          "name": "",
          "type": "address"
        }
      ],
      "stateMutability": "view",
      "type": "function"
    },
    {
      "inputs": [],
      "name": "renounceOwnership",
      "outputs": [],
      "stateMutability": "nonpayable",
      "type": "function"
    },
    {
      "inputs": [],
      "name": "startVote",
      "outputs": [],
      "stateMutability": "nonpayable",
      "type": "function"
    },
    {
      "inputs": [
        {
          "internalType": "address",
          "name": "newOwner",
          "type": "address"
        }
      ],
      "name": "transferOwnership",
      "outputs": [],
      "stateMutability": "nonpayable",
      "type": "function"
    },
    {
      "inputs": [
        {
          "internalType": "bool",
          "name": "_response",
          "type": "bool"
        }
      ],
      "name": "vote",
      "outputs": [],
      "stateMutability": "nonpayable",
      "type": "function"
    },
    {
      "inputs": [
        {
          "internalType": "uint256",
          "name": "",
          "type": "uint256"
        }
      ],
      "name": "voteCasters",
      "outputs": [
        {
          "internalType": "address",
          "name": "",
          "type": "address"
        }
      ],
      "stateMutability": "view",
      "type": "function"
    }
  ],
  "bytecode": "0x60806040523480156200001157600080fd5b5062000032620000266200006260201b60201c565b6200006a60201b60201c565b60008060146101000a81548160ff0219169083151502179055506200005c6200012e60201b60201c565b620002e1565b600033905090565b60008060009054906101000a900473ffffffffffffffffffffffffffffffffffffffff169050816000806101000a81548173ffffffffffffffffffffffffffffffffffffffff021916908373ffffffffffffffffffffffffffffffffffffffff1602179055508173ffffffffffffffffffffffffffffffffffffffff168173ffffffffffffffffffffffffffffffffffffffff167f8be0079c531659141344cd1fd0a4f28419497f9722a3daafe3b4186f6b6457e060405160405180910390a35050565b6200013e620001e660201b60201c565b1562000181576040517f08c379a0000000000000000000000000000000000000000000000000000000008152600401620001789062000251565b60405180910390fd5b6001600060146101000a81548160ff0219169083151502179055507f62e78cea01bee320cd4e420270b5ea74000d11b0c9f74754ebdbfc544b05a258620001cd6200006260201b60201c565b604051620001dc919062000234565b60405180910390a1565b60008060149054906101000a900460ff16905090565b620002078162000284565b82525050565b60006200021c60108362000273565b91506200022982620002b8565b602082019050919050565b60006020820190506200024b6000830184620001fc565b92915050565b600060208201905081810360008301526200026c816200020d565b9050919050565b600082825260208201905092915050565b6000620002918262000298565b9050919050565b600073ffffffffffffffffffffffffffffffffffffffff82169050919050565b7f5061757361626c653a2070617573656400000000000000000000000000000000600082015250565b6118e180620002f16000396000f3fe608060405234801561001057600080fd5b50600436106100b35760003560e01c80636814d7b7116100715780636814d7b71461016a578063715018a61461019a5780638da5cb5b146101a4578063aca84892146101c2578063b9223946146101de578063f2fde38b146101e8576100b3565b8062ce8e3e146100b85780630dc96015146100d75780632436e06b146100f65780634b9f5c98146101265780634c0a6af0146101425780635c975abb1461014c575b600080fd5b6100c0610204565b6040516100ce929190611313565b60405180910390f35b6100df610323565b6040516100ed929190611445565b60405180910390f35b610110600480360381019061010b9190611128565b6104a6565b60405161011d91906112f8565b60405180910390f35b610140600480360381019061013b91906110be565b6104e5565b005b61014a610785565b005b61015461080b565b604051610161919061134a565b60405180910390f35b610184600480360381019061017f9190611128565b610821565b60405161019191906112f8565b60405180910390f35b6101a2610860565b005b6101ac6108e8565b6040516101b991906112f8565b60405180910390f35b6101dc60048036038101906101d791906110e7565b610911565b005b6101e6610bbd565b005b61020260048036038101906101fd9190611095565b610c43565b005b606080600160028180548060200260200160405190810160405280929190818152602001828054801561028c57602002820191906000526020600020905b8160009054906101000a900473ffffffffffffffffffffffffffffffffffffffff1673ffffffffffffffffffffffffffffffffffffffff1681526020019060010190808311610242575b505050505091508080548060200260200160405190810160405280929190818152602001828054801561031457602002820191906000526020600020905b8160009054906101000a900473ffffffffffffffffffffffffffffffffffffffff1673ffffffffffffffffffffffffffffffffffffffff16815260200190600101908083116102ca575b50505050509050915091509091565b60008060008060005b60028054905081101561049957600180811115610372577f4e487b7100000000000000000000000000000000000000000000000000000000600052602160045260246000fd5b60036000600284815481106103b0577f4e487b7100000000000000000000000000000000000000000000000000000000600052603260045260246000fd5b9060005260206000200160009054906101000a900473ffffffffffffffffffffffffffffffffffffffff1673ffffffffffffffffffffffffffffffffffffffff1673ffffffffffffffffffffffffffffffffffffffff16815260200190815260200160002060010160009054906101000a900460ff16600181111561045e577f4e487b7100000000000000000000000000000000000000000000000000000000600052602160045260246000fd5b141561047757828061046f906115c8565b935050610486565b8180610482906115c8565b9250505b8080610491906115c8565b91505061032c565b5080829350935050509091565b600181815481106104b657600080fd5b906000526020600020016000915054906101000a900473ffffffffffffffffffffffffffffffffffffffff1681565b6104ed61080b565b1561052d576040517f08c379a0000000000000000000000000000000000000000000000000000000008152600401610524906113e5565b60405180910390fd5b600115156003600061053d610d3b565b73ffffffffffffffffffffffffffffffffffffffff1673ffffffffffffffffffffffffffffffffffffffff16815260200190815260200160002060010160019054906101000a900460ff161515146105ca576040517f08c379a00000000000000000000000000000000000000000000000000000000081526004016105c190611405565b60405180910390fd5b60001515600360006105da610d3b565b73ffffffffffffffffffffffffffffffffffffffff1673ffffffffffffffffffffffffffffffffffffffff16815260200190815260200160002060010160029054906101000a900460ff16151514610667576040517f08c379a000000000000000000000000000000000000000000000000000000000815260040161065e906113a5565b60405180910390fd5b6000610671610d3b565b90506000600360008373ffffffffffffffffffffffffffffffffffffffff1673ffffffffffffffffffffffffffffffffffffffff168152602001908152602001600020905060011515831515146106c95760006106cc565b60015b8160010160006101000a81548160ff02191690836001811115610718577f4e487b7100000000000000000000000000000000000000000000000000000000600052602160045260246000fd5b02179055506002829080600181540180825580915050600190039060005260206000200160009091909190916101000a81548173ffffffffffffffffffffffffffffffffffffffff021916908373ffffffffffffffffffffffffffffffffffffffff160217905550505050565b61078d610d3b565b73ffffffffffffffffffffffffffffffffffffffff166107ab6108e8565b73ffffffffffffffffffffffffffffffffffffffff1614610801576040517f08c379a00000000000000000000000000000000000000000000000000000000081526004016107f890611425565b60405180910390fd5b610809610d43565b565b60008060149054906101000a900460ff16905090565b6002818154811061083157600080fd5b906000526020600020016000915054906101000a900473ffffffffffffffffffffffffffffffffffffffff1681565b610868610d3b565b73ffffffffffffffffffffffffffffffffffffffff166108866108e8565b73ffffffffffffffffffffffffffffffffffffffff16146108dc576040517f08c379a00000000000000000000000000000000000000000000000000000000081526004016108d390611425565b60405180910390fd5b6108e66000610de4565b565b60008060009054906101000a900473ffffffffffffffffffffffffffffffffffffffff16905090565b61091961080b565b610958576040517f08c379a000000000000000000000000000000000000000000000000000000000815260040161094f90611365565b60405180910390fd5b6000151560036000610968610d3b565b73ffffffffffffffffffffffffffffffffffffffff1673ffffffffffffffffffffffffffffffffffffffff16815260200190815260200160002060010160019054906101000a900460ff161515146109f5576040517f08c379a00000000000000000000000000000000000000000000000000000000081526004016109ec906113c5565b60405180910390fd5b60006109ff610d3b565b9050604051806080016040528083815260200160006001811115610a4c577f4e487b7100000000000000000000000000000000000000000000000000000000600052602160045260246000fd5b815260200160011515815260200160001515815250600360008373ffffffffffffffffffffffffffffffffffffffff1673ffffffffffffffffffffffffffffffffffffffff1681526020019081526020016000206000820151816000019080519060200190610abc929190610f4b565b5060208201518160010160006101000a81548160ff02191690836001811115610b0e577f4e487b7100000000000000000000000000000000000000000000000000000000600052602160045260246000fd5b021790555060408201518160010160016101000a81548160ff02191690831515021790555060608201518160010160026101000a81548160ff0219169083151502179055509050506001819080600181540180825580915050600190039060005260206000200160009091909190916101000a81548173ffffffffffffffffffffffffffffffffffffffff021916908373ffffffffffffffffffffffffffffffffffffffff1602179055505050565b610bc5610d3b565b73ffffffffffffffffffffffffffffffffffffffff16610be36108e8565b73ffffffffffffffffffffffffffffffffffffffff1614610c39576040517f08c379a0000000000000000000000000000000000000000000000000000000008152600401610c3090611425565b60405180910390fd5b610c41610ea8565b565b610c4b610d3b565b73ffffffffffffffffffffffffffffffffffffffff16610c696108e8565b73ffffffffffffffffffffffffffffffffffffffff1614610cbf576040517f08c379a0000000000000000000000000000000000000000000000000000000008152600401610cb690611425565b60405180910390fd5b600073ffffffffffffffffffffffffffffffffffffffff168173ffffffffffffffffffffffffffffffffffffffff161415610d2f576040517f08c379a0000000000000000000000000000000000000000000000000000000008152600401610d2690611385565b60405180910390fd5b610d3881610de4565b50565b600033905090565b610d4b61080b565b610d8a576040517f08c379a0000000000000000000000000000000000000000000000000000000008152600401610d8190611365565b60405180910390fd5b60008060146101000a81548160ff0219169083151502179055507f5db9ee0a495bf2e6ff9c91a7834c1ba4fdd244a5e8aa4e537bd38aeae4b073aa610dcd610d3b565b604051610dda91906112f8565b60405180910390a1565b60008060009054906101000a900473ffffffffffffffffffffffffffffffffffffffff169050816000806101000a81548173ffffffffffffffffffffffffffffffffffffffff021916908373ffffffffffffffffffffffffffffffffffffffff1602179055508173ffffffffffffffffffffffffffffffffffffffff168173ffffffffffffffffffffffffffffffffffffffff167f8be0079c531659141344cd1fd0a4f28419497f9722a3daafe3b4186f6b6457e060405160405180910390a35050565b610eb061080b565b15610ef0576040517f08c379a0000000000000000000000000000000000000000000000000000000008152600401610ee7906113e5565b60405180910390fd5b6001600060146101000a81548160ff0219169083151502179055507f62e78cea01bee320cd4e420270b5ea74000d11b0c9f74754ebdbfc544b05a258610f34610d3b565b604051610f4191906112f8565b60405180910390a1565b828054610f5790611565565b90600052602060002090601f016020900481019282610f795760008555610fc0565b82601f10610f9257805160ff1916838001178555610fc0565b82800160010185558215610fc0579182015b82811115610fbf578251825591602001919060010190610fa4565b5b509050610fcd9190610fd1565b5090565b5b80821115610fea576000816000905550600101610fd2565b5090565b6000611001610ffc84611493565b61146e565b90508281526020810184848401111561101957600080fd5b611024848285611556565b509392505050565b60008135905061103b81611866565b92915050565b6000813590506110508161187d565b92915050565b600082601f83011261106757600080fd5b8135611077848260208601610fee565b91505092915050565b60008135905061108f81611894565b92915050565b6000602082840312156110a757600080fd5b60006110b58482850161102c565b91505092915050565b6000602082840312156110d057600080fd5b60006110de84828501611041565b91505092915050565b6000602082840312156110f957600080fd5b600082013567ffffffffffffffff81111561111357600080fd5b61111f84828501611056565b91505092915050565b60006020828403121561113a57600080fd5b600061114884828501611080565b91505092915050565b600061115d8383611169565b60208301905092915050565b6111728161150e565b82525050565b6111818161150e565b82525050565b6000611192826114d4565b61119c81856114ec565b93506111a7836114c4565b8060005b838110156111d85781516111bf8882611151565b97506111ca836114df565b9250506001810190506111ab565b5085935050505092915050565b6111ee81611520565b82525050565b60006112016014836114fd565b915061120c826116af565b602082019050919050565b60006112246026836114fd565b915061122f826116d8565b604082019050919050565b60006112476022836114fd565b915061125282611727565b604082019050919050565b600061126a602a836114fd565b915061127582611776565b604082019050919050565b600061128d6010836114fd565b9150611298826117c5565b602082019050919050565b60006112b06026836114fd565b91506112bb826117ee565b604082019050919050565b60006112d36020836114fd565b91506112de8261183d565b602082019050919050565b6112f28161154c565b82525050565b600060208201905061130d6000830184611178565b92915050565b6000604082019050818103600083015261132d8185611187565b905081810360208301526113418184611187565b90509392505050565b600060208201905061135f60008301846111e5565b92915050565b6000602082019050818103600083015261137e816111f4565b9050919050565b6000602082019050818103600083015261139e81611217565b9050919050565b600060208201905081810360008301526113be8161123a565b9050919050565b600060208201905081810360008301526113de8161125d565b9050919050565b600060208201905081810360008301526113fe81611280565b9050919050565b6000602082019050818103600083015261141e816112a3565b9050919050565b6000602082019050818103600083015261143e816112c6565b9050919050565b600060408201905061145a60008301856112e9565b61146760208301846112e9565b9392505050565b6000611478611489565b90506114848282611597565b919050565b6000604051905090565b600067ffffffffffffffff8211156114ae576114ad61166f565b5b6114b78261169e565b9050602081019050919050565b6000819050602082019050919050565b600081519050919050565b6000602082019050919050565b600082825260208201905092915050565b600082825260208201905092915050565b60006115198261152c565b9050919050565b60008115159050919050565b600073ffffffffffffffffffffffffffffffffffffffff82169050919050565b6000819050919050565b82818337600083830152505050565b6000600282049050600182168061157d57607f821691505b6020821081141561159157611590611640565b5b50919050565b6115a08261169e565b810181811067ffffffffffffffff821117156115bf576115be61166f565b5b80604052505050565b60006115d38261154c565b91507fffffffffffffffffffffffffffffffffffffffffffffffffffffffffffffffff82141561160657611605611611565b5b600182019050919050565b7f4e487b7100000000000000000000000000000000000000000000000000000000600052601160045260246000fd5b7f4e487b7100000000000000000000000000000000000000000000000000000000600052602260045260246000fd5b7f4e487b7100000000000000000000000000000000000000000000000000000000600052604160045260246000fd5b6000601f19601f8301169050919050565b7f5061757361626c653a206e6f7420706175736564000000000000000000000000600082015250565b7f4f776e61626c653a206e6577206f776e657220697320746865207a65726f206160008201527f6464726573730000000000000000000000000000000000000000000000000000602082015250565b7f566f74696e673a20596f7520686176652063617374656420796f757220766f7460008201527f652e000000000000000000000000000000000000000000000000000000000000602082015250565b7f566f74696e673a20596f752061726520616c726561647920726567697374657260008201527f656420746f20766f746500000000000000000000000000000000000000000000602082015250565b7f5061757361626c653a2070617573656400000000000000000000000000000000600082015250565b7f566f74696e673a20596f7520617265206e6f742072656769737465726564207460008201527f6f20766f74650000000000000000000000000000000000000000000000000000602082015250565b7f4f776e61626c653a2063616c6c6572206973206e6f7420746865206f776e6572600082015250565b61186f8161150e565b811461187a57600080fd5b50565b61188681611520565b811461189157600080fd5b50565b61189d8161154c565b81146118a857600080fd5b5056fea2646970667358221220ce6261d545e4ae0cb4c63e4c5bdb591e4c84791f281d8db7e92467ae9ad559e064736f6c63430008040033",
  "linkReferences": {},
  "deployedLinkReferences": {}
}