{
  "_format": "hh-sol-artifact-1",
  "contractName": "Voting",
  "sourceName": "contracts/Voting.sol",
  "abi": [
    {
      "inputs": [
        {
          "internalType": "string",
          "name": "_question",
          "type": "string"
        }
      ],
      "stateMutability": "nonpayable",
      "type": "constructor"
    },
    {
      "anonymous": false,
      "inputs": [
        {
          "indexed": true,
          "internalType": "address",
          "name": "previousOwner",
          "type": "address"
        },
        {
          "indexed": true,
          "internalType": "address",
          "name": "newOwner",
          "type": "address"
        }
      ],
      "name": "OwnershipTransferred",
      "type": "event"
    },
    {
      "anonymous": false,
      "inputs": [
        {
          "indexed": false,
          "internalType": "address",
          "name": "account",
          "type": "address"
        }
      ],
      "name": "Paused",
      "type": "event"
    },
    {
      "anonymous": false,
      "inputs": [
        {
          "indexed": true,
          "internalType": "address",
          "name": "_address",
          "type": "address"
        }
      ],
      "name": "Register",
      "type": "event"
    },
    {
      "anonymous": false,
      "inputs": [
        {
          "indexed": false,
          "internalType": "address",
          "name": "account",
          "type": "address"
        }
      ],
      "name": "Unpaused",
      "type": "event"
    },
    {
      "anonymous": false,
      "inputs": [
        {
          "indexed": true,
          "internalType": "address",
          "name": "_address",
          "type": "address"
        },
        {
          "indexed": false,
          "internalType": "bool",
          "name": "response",
          "type": "bool"
        }
      ],
      "name": "Vote",
      "type": "event"
    },
    {
      "inputs": [
        {
          "internalType": "string",
          "name": "_name",
          "type": "string"
        }
      ],
      "name": "addVoter",
      "outputs": [],
      "stateMutability": "nonpayable",
      "type": "function"
    },
    {
      "inputs": [],
      "name": "endVote",
      "outputs": [],
      "stateMutability": "nonpayable",
      "type": "function"
    },
    {
      "inputs": [],
      "name": "getQuestion",
      "outputs": [
        {
          "internalType": "string",
          "name": "",
          "type": "string"
        }
      ],
      "stateMutability": "view",
      "type": "function"
    },
    {
      "inputs": [],
      "name": "getUsers",
      "outputs": [
        {
          "internalType": "address[]",
          "name": "",
          "type": "address[]"
        },
        {
          "internalType": "address[]",
          "name": "",
          "type": "address[]"
        }
      ],
      "stateMutability": "view",
      "type": "function"
    },
    {
      "inputs": [],
      "name": "getVotes",
      "outputs": [
        {
          "internalType": "uint256",
          "name": "",
          "type": "uint256"
        },
        {
          "internalType": "uint256",
          "name": "",
          "type": "uint256"
        }
      ],
      "stateMutability": "view",
      "type": "function"
    },
    {
      "inputs": [],
      "name": "owner",
      "outputs": [
        {
          "internalType": "address",
          "name": "",
          "type": "address"
        }
      ],
      "stateMutability": "view",
      "type": "function"
    },
    {
      "inputs": [],
      "name": "paused",
      "outputs": [
        {
          "internalType": "bool",
          "name": "",
          "type": "bool"
        }
      ],
      "stateMutability": "view",
      "type": "function"
    },
    {
      "inputs": [],
      "name": "question",
      "outputs": [
        {
          "internalType": "string",
          "name": "",
          "type": "string"
        }
      ],
      "stateMutability": "view",
      "type": "function"
    },
    {
      "inputs": [
        {
          "internalType": "uint256",
          "name": "",
          "type": "uint256"
        }
      ],
      "name": "registeredVoters",
      "outputs": [
        {
          "internalType": "address",
          "name": "",
          "type": "address"
        }
      ],
      "stateMutability": "view",
      "type": "function"
    },
    {
      "inputs": [],
      "name": "renounceOwnership",
      "outputs": [],
      "stateMutability": "nonpayable",
      "type": "function"
    },
    {
      "inputs": [],
      "name": "resetVotes",
      "outputs": [],
      "stateMutability": "nonpayable",
      "type": "function"
    },
    {
      "inputs": [],
      "name": "startVote",
      "outputs": [],
      "stateMutability": "nonpayable",
      "type": "function"
    },
    {
      "inputs": [
        {
          "internalType": "address",
          "name": "newOwner",
          "type": "address"
        }
      ],
      "name": "transferOwnership",
      "outputs": [],
      "stateMutability": "nonpayable",
      "type": "function"
    },
    {
      "inputs": [
        {
          "internalType": "bool",
          "name": "_response",
          "type": "bool"
        }
      ],
      "name": "vote",
      "outputs": [],
      "stateMutability": "nonpayable",
      "type": "function"
    },
    {
      "inputs": [
        {
          "internalType": "uint256",
          "name": "",
          "type": "uint256"
        }
      ],
      "name": "voteCasters",
      "outputs": [
        {
          "internalType": "address",
          "name": "",
          "type": "address"
        }
      ],
      "stateMutability": "view",
      "type": "function"
    }
  ],
  "bytecode": "0x60806040523480156200001157600080fd5b50604051620025603803806200256083398181016040528101906200003791906200035d565b620000576200004b620000a160201b60201c565b620000a960201b60201c565b60008060146101000a81548160ff021916908315150217905550620000816200016d60201b60201c565b8060039080519060200190620000999291906200023b565b5050620005f7565b600033905090565b60008060009054906101000a900473ffffffffffffffffffffffffffffffffffffffff169050816000806101000a81548173ffffffffffffffffffffffffffffffffffffffff021916908373ffffffffffffffffffffffffffffffffffffffff1602179055508173ffffffffffffffffffffffffffffffffffffffff168173ffffffffffffffffffffffffffffffffffffffff167f8be0079c531659141344cd1fd0a4f28419497f9722a3daafe3b4186f6b6457e060405160405180910390a35050565b6200017d6200022560201b60201c565b15620001c0576040517f08c379a0000000000000000000000000000000000000000000000000000000008152600401620001b790620003f7565b60405180910390fd5b6001600060146101000a81548160ff0219169083151502179055507f62e78cea01bee320cd4e420270b5ea74000d11b0c9f74754ebdbfc544b05a2586200020c620000a160201b60201c565b6040516200021b9190620003da565b60405180910390a1565b60008060149054906101000a900460ff16905090565b8280546200024990620004f3565b90600052602060002090601f0160209004810192826200026d5760008555620002b9565b82601f106200028857805160ff1916838001178555620002b9565b82800160010185558215620002b9579182015b82811115620002b85782518255916020019190600101906200029b565b5b509050620002c89190620002cc565b5090565b5b80821115620002e7576000816000905550600101620002cd565b5090565b600062000302620002fc8462000442565b62000419565b9050828152602081018484840111156200031b57600080fd5b62000328848285620004bd565b509392505050565b600082601f8301126200034257600080fd5b815162000354848260208601620002eb565b91505092915050565b6000602082840312156200037057600080fd5b600082015167ffffffffffffffff8111156200038b57600080fd5b620003998482850162000330565b91505092915050565b620003ad8162000489565b82525050565b6000620003c260108362000478565b9150620003cf82620005ce565b602082019050919050565b6000602082019050620003f16000830184620003a2565b92915050565b600060208201905081810360008301526200041281620003b3565b9050919050565b60006200042562000438565b905062000433828262000529565b919050565b6000604051905090565b600067ffffffffffffffff82111562000460576200045f6200058e565b5b6200046b82620005bd565b9050602081019050919050565b600082825260208201905092915050565b600062000496826200049d565b9050919050565b600073ffffffffffffffffffffffffffffffffffffffff82169050919050565b60005b83811015620004dd578082015181840152602081019050620004c0565b83811115620004ed576000848401525b50505050565b600060028204905060018216806200050c57607f821691505b602082108114156200052357620005226200055f565b5b50919050565b6200053482620005bd565b810181811067ffffffffffffffff821117156200055657620005556200058e565b5b80604052505050565b7f4e487b7100000000000000000000000000000000000000000000000000000000600052602260045260246000fd5b7f4e487b7100000000000000000000000000000000000000000000000000000000600052604160045260246000fd5b6000601f19601f8301169050919050565b7f5061757361626c653a2070617573656400000000000000000000000000000000600082015250565b611f5980620006076000396000f3fe608060405234801561001057600080fd5b50600436106100f45760003560e01c80636814d7b711610097578063b922394611610066578063b92239461461023d578063b9830ff114610247578063eff38f9214610251578063f2fde38b1461026f576100f4565b80636814d7b7146101c9578063715018a6146101f95780638da5cb5b14610203578063aca8489214610221576100f4565b80633fad9ae0116100d35780633fad9ae0146101675780634b9f5c98146101855780634c0a6af0146101a15780635c975abb146101ab576100f4565b8062ce8e3e146100f95780630dc96015146101185780632436e06b14610137575b600080fd5b61010161028b565b60405161010f92919061192b565b60405180910390f35b6101206103aa565b60405161012e929190611a7f565b60405180910390f35b610151600480360381019061014c9190611707565b61052d565b60405161015e9190611910565b60405180910390f35b61016f61056c565b60405161017c919061197d565b60405180910390f35b61019f600480360381019061019a919061169d565b6105fa565b005b6101a96108e8565b005b6101b361096e565b6040516101c09190611962565b60405180910390f35b6101e360048036038101906101de9190611707565b610984565b6040516101f09190611910565b60405180910390f35b6102016109c3565b005b61020b610a4b565b6040516102189190611910565b60405180910390f35b61023b600480360381019061023691906116c6565b610a74565b005b610245610d63565b005b61024f610de9565b005b61025961116f565b604051610266919061197d565b60405180910390f35b61028960048036038101906102849190611674565b611201565b005b606080600160028180548060200260200160405190810160405280929190818152602001828054801561031357602002820191906000526020600020905b8160009054906101000a900473ffffffffffffffffffffffffffffffffffffffff1673ffffffffffffffffffffffffffffffffffffffff16815260200190600101908083116102c9575b505050505091508080548060200260200160405190810160405280929190818152602001828054801561039b57602002820191906000526020600020905b8160009054906101000a900473ffffffffffffffffffffffffffffffffffffffff1673ffffffffffffffffffffffffffffffffffffffff1681526020019060010190808311610351575b50505050509050915091509091565b60008060008060005b600280549050811015610520576001808111156103f9577f4e487b7100000000000000000000000000000000000000000000000000000000600052602160045260246000fd5b6004600060028481548110610437577f4e487b7100000000000000000000000000000000000000000000000000000000600052603260045260246000fd5b9060005260206000200160009054906101000a900473ffffffffffffffffffffffffffffffffffffffff1673ffffffffffffffffffffffffffffffffffffffff1673ffffffffffffffffffffffffffffffffffffffff16815260200190815260200160002060010160009054906101000a900460ff1660018111156104e5577f4e487b7100000000000000000000000000000000000000000000000000000000600052602160045260246000fd5b14156104fe5782806104f690611c40565b93505061050d565b818061050990611c40565b9250505b808061051890611c40565b9150506103b3565b5080829350935050509091565b6001818154811061053d57600080fd5b906000526020600020016000915054906101000a900473ffffffffffffffffffffffffffffffffffffffff1681565b6003805461057990611bdd565b80601f01602080910402602001604051908101604052809291908181526020018280546105a590611bdd565b80156105f25780601f106105c7576101008083540402835291602001916105f2565b820191906000526020600020905b8154815290600101906020018083116105d557829003601f168201915b505050505081565b61060261096e565b15610642576040517f08c379a000000000000000000000000000000000000000000000000000000000815260040161063990611a1f565b60405180910390fd5b60011515600460006106526112f9565b73ffffffffffffffffffffffffffffffffffffffff1673ffffffffffffffffffffffffffffffffffffffff16815260200190815260200160002060010160019054906101000a900460ff161515146106df576040517f08c379a00000000000000000000000000000000000000000000000000000000081526004016106d690611a3f565b60405180910390fd5b60001515600460006106ef6112f9565b73ffffffffffffffffffffffffffffffffffffffff1673ffffffffffffffffffffffffffffffffffffffff16815260200190815260200160002060010160029054906101000a900460ff1615151461077c576040517f08c379a0000000000000000000000000000000000000000000000000000000008152600401610773906119df565b60405180910390fd5b60006107866112f9565b90506000600460008373ffffffffffffffffffffffffffffffffffffffff1673ffffffffffffffffffffffffffffffffffffffff168152602001908152602001600020905060011515831515146107de5760006107e1565b60015b8160010160006101000a81548160ff0219169083600181111561082d577f4e487b7100000000000000000000000000000000000000000000000000000000600052602160045260246000fd5b02179055506002829080600181540180825580915050600190039060005260206000200160009091909190916101000a81548173ffffffffffffffffffffffffffffffffffffffff021916908373ffffffffffffffffffffffffffffffffffffffff1602179055508173ffffffffffffffffffffffffffffffffffffffff167fa635d31e67484fd1d93ba01ab0ef882e4440a78aa40d0e2771e8a2aace459869846040516108db9190611962565b60405180910390a2505050565b6108f06112f9565b73ffffffffffffffffffffffffffffffffffffffff1661090e610a4b565b73ffffffffffffffffffffffffffffffffffffffff1614610964576040517f08c379a000000000000000000000000000000000000000000000000000000000815260040161095b90611a5f565b60405180910390fd5b61096c611301565b565b60008060149054906101000a900460ff16905090565b6002818154811061099457600080fd5b906000526020600020016000915054906101000a900473ffffffffffffffffffffffffffffffffffffffff1681565b6109cb6112f9565b73ffffffffffffffffffffffffffffffffffffffff166109e9610a4b565b73ffffffffffffffffffffffffffffffffffffffff1614610a3f576040517f08c379a0000000000000000000000000000000000000000000000000000000008152600401610a3690611a5f565b60405180910390fd5b610a4960006113a2565b565b60008060009054906101000a900473ffffffffffffffffffffffffffffffffffffffff16905090565b610a7c61096e565b610abb576040517f08c379a0000000000000000000000000000000000000000000000000000000008152600401610ab29061199f565b60405180910390fd5b6000151560046000610acb6112f9565b73ffffffffffffffffffffffffffffffffffffffff1673ffffffffffffffffffffffffffffffffffffffff16815260200190815260200160002060010160019054906101000a900460ff16151514610b58576040517f08c379a0000000000000000000000000000000000000000000000000000000008152600401610b4f906119ff565b60405180910390fd5b6000610b626112f9565b9050604051806080016040528083815260200160006001811115610baf577f4e487b7100000000000000000000000000000000000000000000000000000000600052602160045260246000fd5b815260200160011515815260200160001515815250600460008373ffffffffffffffffffffffffffffffffffffffff1673ffffffffffffffffffffffffffffffffffffffff1681526020019081526020016000206000820151816000019080519060200190610c1f929190611509565b5060208201518160010160006101000a81548160ff02191690836001811115610c71577f4e487b7100000000000000000000000000000000000000000000000000000000600052602160045260246000fd5b021790555060408201518160010160016101000a81548160ff02191690831515021790555060608201518160010160026101000a81548160ff0219169083151502179055509050506001819080600181540180825580915050600190039060005260206000200160009091909190916101000a81548173ffffffffffffffffffffffffffffffffffffffff021916908373ffffffffffffffffffffffffffffffffffffffff1602179055508073ffffffffffffffffffffffffffffffffffffffff167feeda149c76076b34d4b9d8896c2f7efc0d33d1c7b53ea3c5db490d64613f603a60405160405180910390a25050565b610d6b6112f9565b73ffffffffffffffffffffffffffffffffffffffff16610d89610a4b565b73ffffffffffffffffffffffffffffffffffffffff1614610ddf576040517f08c379a0000000000000000000000000000000000000000000000000000000008152600401610dd690611a5f565b60405180910390fd5b610de7611466565b565b610df161096e565b610e30576040517f08c379a0000000000000000000000000000000000000000000000000000000008152600401610e279061199f565b60405180910390fd5b610e386112f9565b73ffffffffffffffffffffffffffffffffffffffff16610e56610a4b565b73ffffffffffffffffffffffffffffffffffffffff1614610eac576040517f08c379a0000000000000000000000000000000000000000000000000000000008152600401610ea390611a5f565b60405180910390fd5b60005b60028054905081101561115e57600060028281548110610ef8577f4e487b7100000000000000000000000000000000000000000000000000000000600052603260045260246000fd5b9060005260206000200160009054906101000a900473ffffffffffffffffffffffffffffffffffffffff1690506000600460008373ffffffffffffffffffffffffffffffffffffffff1673ffffffffffffffffffffffffffffffffffffffff1681526020019081526020016000206000018054610f7490611bdd565b80601f0160208091040260200160405190810160405280929190818152602001828054610fa090611bdd565b8015610fed5780601f10610fc257610100808354040283529160200191610fed565b820191906000526020600020905b815481529060010190602001808311610fd057829003601f168201915b5050505050905060405180608001604052808281526020016000600181111561103f577f4e487b7100000000000000000000000000000000000000000000000000000000600052602160045260246000fd5b815260200160011515815260200160001515815250600460008473ffffffffffffffffffffffffffffffffffffffff1673ffffffffffffffffffffffffffffffffffffffff16815260200190815260200160002060008201518160000190805190602001906110af929190611509565b5060208201518160010160006101000a81548160ff02191690836001811115611101577f4e487b7100000000000000000000000000000000000000000000000000000000600052602160045260246000fd5b021790555060408201518160010160016101000a81548160ff02191690831515021790555060608201518160010160026101000a81548160ff0219169083151502179055509050505050808061115690611c40565b915050610eaf565b506002600061116d919061158f565b565b60606003805461117e90611bdd565b80601f01602080910402602001604051908101604052809291908181526020018280546111aa90611bdd565b80156111f75780601f106111cc576101008083540402835291602001916111f7565b820191906000526020600020905b8154815290600101906020018083116111da57829003601f168201915b5050505050905090565b6112096112f9565b73ffffffffffffffffffffffffffffffffffffffff16611227610a4b565b73ffffffffffffffffffffffffffffffffffffffff161461127d576040517f08c379a000000000000000000000000000000000000000000000000000000000815260040161127490611a5f565b60405180910390fd5b600073ffffffffffffffffffffffffffffffffffffffff168173ffffffffffffffffffffffffffffffffffffffff1614156112ed576040517f08c379a00000000000000000000000000000000000000000000000000000000081526004016112e4906119bf565b60405180910390fd5b6112f6816113a2565b50565b600033905090565b61130961096e565b611348576040517f08c379a000000000000000000000000000000000000000000000000000000000815260040161133f9061199f565b60405180910390fd5b60008060146101000a81548160ff0219169083151502179055507f5db9ee0a495bf2e6ff9c91a7834c1ba4fdd244a5e8aa4e537bd38aeae4b073aa61138b6112f9565b6040516113989190611910565b60405180910390a1565b60008060009054906101000a900473ffffffffffffffffffffffffffffffffffffffff169050816000806101000a81548173ffffffffffffffffffffffffffffffffffffffff021916908373ffffffffffffffffffffffffffffffffffffffff1602179055508173ffffffffffffffffffffffffffffffffffffffff168173ffffffffffffffffffffffffffffffffffffffff167f8be0079c531659141344cd1fd0a4f28419497f9722a3daafe3b4186f6b6457e060405160405180910390a35050565b61146e61096e565b156114ae576040517f08c379a00000000000000000000000000000000000000000000000000000000081526004016114a590611a1f565b60405180910390fd5b6001600060146101000a81548160ff0219169083151502179055507f62e78cea01bee320cd4e420270b5ea74000d11b0c9f74754ebdbfc544b05a2586114f26112f9565b6040516114ff9190611910565b60405180910390a1565b82805461151590611bdd565b90600052602060002090601f016020900481019282611537576000855561157e565b82601f1061155057805160ff191683800117855561157e565b8280016001018555821561157e579182015b8281111561157d578251825591602001919060010190611562565b5b50905061158b91906115b0565b5090565b50805460008255906000526020600020908101906115ad91906115b0565b50565b5b808211156115c95760008160009055506001016115b1565b5090565b60006115e06115db84611acd565b611aa8565b9050828152602081018484840111156115f857600080fd5b611603848285611b9b565b509392505050565b60008135905061161a81611ede565b92915050565b60008135905061162f81611ef5565b92915050565b600082601f83011261164657600080fd5b81356116568482602086016115cd565b91505092915050565b60008135905061166e81611f0c565b92915050565b60006020828403121561168657600080fd5b60006116948482850161160b565b91505092915050565b6000602082840312156116af57600080fd5b60006116bd84828501611620565b91505092915050565b6000602082840312156116d857600080fd5b600082013567ffffffffffffffff8111156116f257600080fd5b6116fe84828501611635565b91505092915050565b60006020828403121561171957600080fd5b60006117278482850161165f565b91505092915050565b600061173c8383611748565b60208301905092915050565b61175181611b53565b82525050565b61176081611b53565b82525050565b600061177182611b0e565b61177b8185611b31565b935061178683611afe565b8060005b838110156117b757815161179e8882611730565b97506117a983611b24565b92505060018101905061178a565b5085935050505092915050565b6117cd81611b65565b82525050565b60006117de82611b19565b6117e88185611b42565b93506117f8818560208601611baa565b61180181611d16565b840191505092915050565b6000611819601483611b42565b915061182482611d27565b602082019050919050565b600061183c602683611b42565b915061184782611d50565b604082019050919050565b600061185f602283611b42565b915061186a82611d9f565b604082019050919050565b6000611882602a83611b42565b915061188d82611dee565b604082019050919050565b60006118a5601083611b42565b91506118b082611e3d565b602082019050919050565b60006118c8602683611b42565b91506118d382611e66565b604082019050919050565b60006118eb602083611b42565b91506118f682611eb5565b602082019050919050565b61190a81611b91565b82525050565b60006020820190506119256000830184611757565b92915050565b600060408201905081810360008301526119458185611766565b905081810360208301526119598184611766565b90509392505050565b600060208201905061197760008301846117c4565b92915050565b6000602082019050818103600083015261199781846117d3565b905092915050565b600060208201905081810360008301526119b88161180c565b9050919050565b600060208201905081810360008301526119d88161182f565b9050919050565b600060208201905081810360008301526119f881611852565b9050919050565b60006020820190508181036000830152611a1881611875565b9050919050565b60006020820190508181036000830152611a3881611898565b9050919050565b60006020820190508181036000830152611a58816118bb565b9050919050565b60006020820190508181036000830152611a78816118de565b9050919050565b6000604082019050611a946000830185611901565b611aa16020830184611901565b9392505050565b6000611ab2611ac3565b9050611abe8282611c0f565b919050565b6000604051905090565b600067ffffffffffffffff821115611ae857611ae7611ce7565b5b611af182611d16565b9050602081019050919050565b6000819050602082019050919050565b600081519050919050565b600081519050919050565b6000602082019050919050565b600082825260208201905092915050565b600082825260208201905092915050565b6000611b5e82611b71565b9050919050565b60008115159050919050565b600073ffffffffffffffffffffffffffffffffffffffff82169050919050565b6000819050919050565b82818337600083830152505050565b60005b83811015611bc8578082015181840152602081019050611bad565b83811115611bd7576000848401525b50505050565b60006002820490506001821680611bf557607f821691505b60208210811415611c0957611c08611cb8565b5b50919050565b611c1882611d16565b810181811067ffffffffffffffff82111715611c3757611c36611ce7565b5b80604052505050565b6000611c4b82611b91565b91507fffffffffffffffffffffffffffffffffffffffffffffffffffffffffffffffff821415611c7e57611c7d611c89565b5b600182019050919050565b7f4e487b7100000000000000000000000000000000000000000000000000000000600052601160045260246000fd5b7f4e487b7100000000000000000000000000000000000000000000000000000000600052602260045260246000fd5b7f4e487b7100000000000000000000000000000000000000000000000000000000600052604160045260246000fd5b6000601f19601f8301169050919050565b7f5061757361626c653a206e6f7420706175736564000000000000000000000000600082015250565b7f4f776e61626c653a206e6577206f776e657220697320746865207a65726f206160008201527f6464726573730000000000000000000000000000000000000000000000000000602082015250565b7f566f74696e673a20596f7520686176652063617374656420796f757220766f7460008201527f652e000000000000000000000000000000000000000000000000000000000000602082015250565b7f566f74696e673a20596f752061726520616c726561647920726567697374657260008201527f656420746f20766f746500000000000000000000000000000000000000000000602082015250565b7f5061757361626c653a2070617573656400000000000000000000000000000000600082015250565b7f566f74696e673a20596f7520617265206e6f742072656769737465726564207460008201527f6f20766f74650000000000000000000000000000000000000000000000000000602082015250565b7f4f776e61626c653a2063616c6c6572206973206e6f7420746865206f776e6572600082015250565b611ee781611b53565b8114611ef257600080fd5b50565b611efe81611b65565b8114611f0957600080fd5b50565b611f1581611b91565b8114611f2057600080fd5b5056fea26469706673582212204d516d5abe6de2164a7026ae881ba8741d409dcd95312f23aff4519076ecb59864736f6c63430008040033",
  "linkReferences": {},
  "deployedLinkReferences": {}
}